{"abi":[{"type":"constructor","inputs":[{"name":"smartVaultManager_","type":"address","internalType":"contract ISmartVaultManager"},{"name":"assetGroupRegistry_","type":"address","internalType":"contract IAssetGroupRegistry"},{"name":"guardManager_","type":"address","internalType":"contract IGuardManager"}],"stateMutability":"nonpayable"},{"type":"function","name":"validateSmartVault","inputs":[{"name":"asset","type":"address","internalType":"address"},{"name":"smartVault","type":"address","internalType":"address"}],"outputs":[{"name":"","type":"bool","internalType":"bool"}],"stateMutability":"view"},{"type":"function","name":"validateSmartVaults","inputs":[{"name":"asset","type":"address","internalType":"address"},{"name":"smartVaults","type":"address[]","internalType":"address[]"}],"outputs":[{"name":"","type":"bool","internalType":"bool"}],"stateMutability":"view"},{"type":"error","name":"ConfigurationAddressZero","inputs":[]},{"type":"error","name":"InvalidArrayLength","inputs":[]},{"type":"error","name":"InvalidVaultAsset","inputs":[]},{"type":"error","name":"InvalidVaultDepositFee","inputs":[]},{"type":"error","name":"InvalidVaultManagementFee","inputs":[]},{"type":"error","name":"NoGuardsAllowed","inputs":[]}],"bytecode":{"object":"0x60e060405234801561001057600080fd5b50604051610c0e380380610c0e83398101604081905261002f916100b1565b6001600160a01b038316158061004c57506001600160a01b038216155b8061005e57506001600160a01b038116155b1561007c5760405163bb0e4c3560e01b815260040160405180910390fd5b6001600160a01b0392831660805290821660a0521660c0526100fe565b6001600160a01b03811681146100ae57600080fd5b50565b6000806000606084860312156100c657600080fd5b83516100d181610099565b60208501519093506100e281610099565b60408501519092506100f381610099565b809150509250925092565b60805160a05160c051610ada61013460003960006103a601526000610202015260008181610127015261022c0152610ada6000f3fe608060405234801561001057600080fd5b50600436106100365760003560e01c8063a0c02faf1461003b578063ffa9f16a14610062575b600080fd5b61004e610049366004610462565b610075565b604051901515815260200160405180910390f35b61004e6100703660046104ea565b6100f0565b600081810361009757604051634ec4810560e11b815260040160405180910390fd5b60005b828110156100e5576100d2858585848181106100b8576100b8610523565b90506020020160208101906100cd9190610539565b610103565b50806100dd81610556565b91505061009a565b506001949350505050565b60006100fc8383610103565b9392505050565b6040516302d5048560e51b81526001600160a01b03828116600483015260009182917f00000000000000000000000000000000000000000000000000000000000000001690635aa090a090602401606060405180830381865afa15801561016e573d6000803e3d6000fd5b505050506040513d601f19601f820116820180604052508101906101929190610604565b805190915061ffff16156101b9576040516301e41c4f60e41b815260040160405180910390fd5b602081015161ffff16156101e057604051634dbd83cb60e11b815260040160405180910390fd5b604051633732316b60e11b81526001600160a01b0384811660048301526000917f000000000000000000000000000000000000000000000000000000000000000082169163dd0fe31a917f000000000000000000000000000000000000000000000000000000000000000090911690636e6462d690602401602060405180830381865afa158015610275573d6000803e3d6000fd5b505050506040513d601f19601f820116820180604052508101906102999190610670565b6040518263ffffffff1660e01b81526004016102b791815260200190565b600060405180830381865afa1580156102d4573d6000803e3d6000fd5b505050506040513d6000823e601f3d908101601f191682016040526102fc91908101906106b8565b90508051600114158061033b5750846001600160a01b03168160008151811061032757610327610523565b60200260200101516001600160a01b031614155b1561035957604051631b3b488360e11b815260040160405180910390fd5b61036484600061038c565b61036f84600161038c565b61037a84600261038c565b61038584600361038c565b6100e58460045b6040516328cff47b60e11b81526000906001600160a01b037f0000000000000000000000000000000000000000000000000000000000000000169063519fe8f6906103dd9086908690600401610757565b600060405180830381865afa1580156103fa573d6000803e3d6000fd5b505050506040513d6000823e601f3d908101601f191682016040526104229190810190610942565b8051909150156104455760405163e83c0f4f60e01b815260040160405180910390fd5b505050565b6001600160a01b038116811461045f57600080fd5b50565b60008060006040848603121561047757600080fd5b83356104828161044a565b9250602084013567ffffffffffffffff8082111561049f57600080fd5b818601915086601f8301126104b357600080fd5b8135818111156104c257600080fd5b8760208260051b85010111156104d757600080fd5b6020830194508093505050509250925092565b600080604083850312156104fd57600080fd5b82356105088161044a565b915060208301356105188161044a565b809150509250929050565b634e487b7160e01b600052603260045260246000fd5b60006020828403121561054b57600080fd5b81356100fc8161044a565b60006001820161057657634e487b7160e01b600052601160045260246000fd5b5060010190565b634e487b7160e01b600052604160045260246000fd5b60405160c0810167ffffffffffffffff811182821017156105b6576105b661057d565b60405290565b604051601f8201601f1916810167ffffffffffffffff811182821017156105e5576105e561057d565b604052919050565b805161ffff811681146105ff57600080fd5b919050565b60006060828403121561061657600080fd5b6040516060810181811067ffffffffffffffff821117156106395761063961057d565b604052610645836105ed565b8152610653602084016105ed565b6020820152610664604084016105ed565b60408201529392505050565b60006020828403121561068257600080fd5b5051919050565b600067ffffffffffffffff8211156106a3576106a361057d565b5060051b60200190565b80516105ff8161044a565b600060208083850312156106cb57600080fd5b825167ffffffffffffffff8111156106e257600080fd5b8301601f810185136106f357600080fd5b805161070661070182610689565b6105bc565b81815260059190911b8201830190838101908783111561072557600080fd5b928401925b8284101561074c57835161073d8161044a565b8252928401929084019061072a565b979650505050505050565b6001600160a01b0383168152604081016005831061078557634e487b7160e01b600052602160045260246000fd5b8260208301529392505050565b600067ffffffffffffffff8311156107ac576107ac61057d565b60206107c0601f8501601f191682016105bc565b91508382528484840111156107d457600080fd5b60005b848110156107f0578381015183820183015281016107d7565b506000818584010152509392505050565b600082601f83011261081257600080fd5b6100fc83835160208501610792565b80516001600160f01b0319811681146105ff57600080fd5b600082601f83011261084a57600080fd5b8151602061085a61070183610689565b82815260059290921b8401810191818101908684111561087957600080fd5b8286015b848110156108a2578051600981106108955760008081fd5b835291830191830161087d565b509695505050505050565b600082601f8301126108be57600080fd5b815160206108ce61070183610689565b82815260059290921b840181019181810190868411156108ed57600080fd5b8286015b848110156108a257805167ffffffffffffffff8111156109115760008081fd5b8701603f810189136109235760008081fd5b610934898683015160408401610792565b8452509183019183016108f1565b6000602080838503121561095557600080fd5b825167ffffffffffffffff8082111561096d57600080fd5b818501915085601f83011261098157600080fd5b815161098f61070182610689565b81815260059190911b830184019084810190888311156109ae57600080fd5b8585015b83811015610a97578051858111156109c957600080fd5b860160c0818c03601f190112156109e05760008081fd5b6109e8610593565b88820151878111156109fa5760008081fd5b610a088d8b83860101610801565b8252506040610a188184016106ad565b8a8301526060610a29818501610821565b828401526080915081840151818401525060a08084015189811115610a4e5760008081fd5b610a5c8f8d83880101610839565b838501525060c0840151915088821115610a765760008081fd5b610a848e8c848701016108ad565b90830152508452509186019186016109b2565b509897505050505050505056fea2646970667358221220d1845641e05632941f36d8555ff560f41e1ddd08e62c68906726a33ac4e365f264736f6c63430008110033","linkReferences":{}},"methodIdentifiers":{"validateSmartVault(address,address)":"ffa9f16a","validateSmartVaults(address,address[])":"a0c02faf"},"storageLayout":{"storage":[],"types":{}},"id":0}