{"abi":[{"type":"function","name":"COB_ALREADY_APPROVED","inputs":[],"outputs":[{"name":"","type":"string","internalType":"string"}],"stateMutability":"view"},{"type":"function","name":"COB_ALREADY_FRACTIONALIZED","inputs":[],"outputs":[{"name":"","type":"string","internalType":"string"}],"stateMutability":"view"},{"type":"function","name":"COB_ALREADY_SUPPORTED","inputs":[],"outputs":[{"name":"","type":"string","internalType":"string"}],"stateMutability":"view"},{"type":"function","name":"COB_INVALID_BATCH_OWNER","inputs":[],"outputs":[{"name":"","type":"string","internalType":"string"}],"stateMutability":"view"},{"type":"function","name":"COB_INVALID_CALLER","inputs":[],"outputs":[{"name":"","type":"string","internalType":"string"}],"stateMutability":"view"},{"type":"function","name":"COB_INVALID_NEW_STATUS","inputs":[],"outputs":[{"name":"","type":"string","internalType":"string"}],"stateMutability":"view"},{"type":"function","name":"COB_INVALID_QUANTITY","inputs":[],"outputs":[{"name":"","type":"string","internalType":"string"}],"stateMutability":"view"},{"type":"function","name":"COB_INVALID_STATUS","inputs":[],"outputs":[{"name":"","type":"string","internalType":"string"}],"stateMutability":"view"},{"type":"function","name":"COB_MISSING_VINTAGE","inputs":[],"outputs":[{"name":"","type":"string","internalType":"string"}],"stateMutability":"view"},{"type":"function","name":"COB_NOT_BATCH_OWNER","inputs":[],"outputs":[{"name":"","type":"string","internalType":"string"}],"stateMutability":"view"},{"type":"function","name":"COB_NOT_CONFIRMED","inputs":[],"outputs":[{"name":"","type":"string","internalType":"string"}],"stateMutability":"view"},{"type":"function","name":"COB_NOT_EXISTS","inputs":[],"outputs":[{"name":"","type":"string","internalType":"string"}],"stateMutability":"view"},{"type":"function","name":"COB_NOT_PENDING","inputs":[],"outputs":[{"name":"","type":"string","internalType":"string"}],"stateMutability":"view"},{"type":"function","name":"COB_NOT_REJECTED","inputs":[],"outputs":[{"name":"","type":"string","internalType":"string"}],"stateMutability":"view"},{"type":"function","name":"COB_NOT_REQUESTED_STATUS","inputs":[],"outputs":[{"name":"","type":"string","internalType":"string"}],"stateMutability":"view"},{"type":"function","name":"COB_NOT_VERIFIER_OR_BATCH_OWNER","inputs":[],"outputs":[{"name":"","type":"string","internalType":"string"}],"stateMutability":"view"},{"type":"function","name":"COB_NO_TCO2_MINTED","inputs":[],"outputs":[{"name":"","type":"string","internalType":"string"}],"stateMutability":"view"},{"type":"function","name":"COB_ONLY_MINTS","inputs":[],"outputs":[{"name":"","type":"string","internalType":"string"}],"stateMutability":"view"},{"type":"function","name":"COB_PAUSED_CONTRACT","inputs":[],"outputs":[{"name":"","type":"string","internalType":"string"}],"stateMutability":"view"},{"type":"function","name":"COB_REGISTRY_NOT_SUPPORTED","inputs":[],"outputs":[{"name":"","type":"string","internalType":"string"}],"stateMutability":"view"},{"type":"function","name":"COB_TCO2_NOT_FOUND","inputs":[],"outputs":[{"name":"","type":"string","internalType":"string"}],"stateMutability":"view"},{"type":"function","name":"COB_TRANSFER_NOT_APPROVED","inputs":[],"outputs":[{"name":"","type":"string","internalType":"string"}],"stateMutability":"view"},{"type":"function","name":"COB_VINTAGE_ALREADY_SET","inputs":[],"outputs":[{"name":"","type":"string","internalType":"string"}],"stateMutability":"view"},{"type":"function","name":"CP_BLOCKLISTED","inputs":[],"outputs":[{"name":"","type":"string","internalType":"string"}],"stateMutability":"view"},{"type":"function","name":"CP_EMPTY_ADDRESS","inputs":[],"outputs":[{"name":"","type":"string","internalType":"string"}],"stateMutability":"view"},{"type":"function","name":"CP_EMPTY_ARRAY","inputs":[],"outputs":[{"name":"","type":"string","internalType":"string"}],"stateMutability":"view"},{"type":"function","name":"CP_EXCEEDS_TCO2_SUPPLY","inputs":[],"outputs":[{"name":"","type":"string","internalType":"string"}],"stateMutability":"view"},{"type":"function","name":"CP_FEE_TOO_HIGH","inputs":[],"outputs":[{"name":"","type":"string","internalType":"string"}],"stateMutability":"view"},{"type":"function","name":"CP_FULL_POOL","inputs":[],"outputs":[{"name":"","type":"string","internalType":"string"}],"stateMutability":"view"},{"type":"function","name":"CP_INVALID_DESTINATION_SELF","inputs":[],"outputs":[{"name":"","type":"string","internalType":"string"}],"stateMutability":"view"},{"type":"function","name":"CP_INVALID_DESTINATION_ZERO","inputs":[],"outputs":[{"name":"","type":"string","internalType":"string"}],"stateMutability":"view"},{"type":"function","name":"CP_INVALID_FEE","inputs":[],"outputs":[{"name":"","type":"string","internalType":"string"}],"stateMutability":"view"},{"type":"function","name":"CP_INVALID_MAX_FEE","inputs":[],"outputs":[{"name":"","type":"string","internalType":"string"}],"stateMutability":"view"},{"type":"function","name":"CP_LENGTH_MISMATCH","inputs":[],"outputs":[{"name":"","type":"string","internalType":"string"}],"stateMutability":"view"},{"type":"function","name":"CP_METHODOLOGY_NOT_ACCEPTED","inputs":[],"outputs":[{"name":"","type":"string","internalType":"string"}],"stateMutability":"view"},{"type":"function","name":"CP_NON_ZERO_REMAINING","inputs":[],"outputs":[{"name":"","type":"string","internalType":"string"}],"stateMutability":"view"},{"type":"function","name":"CP_NOT_ALLOWLISTED","inputs":[],"outputs":[{"name":"","type":"string","internalType":"string"}],"stateMutability":"view"},{"type":"function","name":"CP_NOT_ELIGIBLE","inputs":[],"outputs":[{"name":"","type":"string","internalType":"string"}],"stateMutability":"view"},{"type":"function","name":"CP_NOT_EXEMPTED","inputs":[],"outputs":[{"name":"","type":"string","internalType":"string"}],"stateMutability":"view"},{"type":"function","name":"CP_NOT_SUPPORTED","inputs":[],"outputs":[{"name":"","type":"string","internalType":"string"}],"stateMutability":"view"},{"type":"function","name":"CP_ONLY_OWNER","inputs":[],"outputs":[{"name":"","type":"string","internalType":"string"}],"stateMutability":"view"},{"type":"function","name":"CP_ONLY_ROUTER","inputs":[],"outputs":[{"name":"","type":"string","internalType":"string"}],"stateMutability":"view"},{"type":"function","name":"CP_PAUSED_CONTRACT","inputs":[],"outputs":[{"name":"","type":"string","internalType":"string"}],"stateMutability":"view"},{"type":"function","name":"CP_REGION_NOT_ACCEPTED","inputs":[],"outputs":[{"name":"","type":"string","internalType":"string"}],"stateMutability":"view"},{"type":"function","name":"CP_STANDARD_NOT_ACCEPTED","inputs":[],"outputs":[{"name":"","type":"string","internalType":"string"}],"stateMutability":"view"},{"type":"function","name":"CP_START_TIME_TOO_OLD","inputs":[],"outputs":[{"name":"","type":"string","internalType":"string"}],"stateMutability":"view"},{"type":"function","name":"CP_UNAUTHORIZED","inputs":[],"outputs":[{"name":"","type":"string","internalType":"string"}],"stateMutability":"view"},{"type":"function","name":"CP_ZERO_AMOUNT","inputs":[],"outputs":[{"name":"","type":"string","internalType":"string"}],"stateMutability":"view"},{"type":"function","name":"TCO2_APPROVAL_AMT_FAILED","inputs":[],"outputs":[{"name":"","type":"string","internalType":"string"}],"stateMutability":"view"},{"type":"function","name":"TCO2_BATCH_AMT_INVALID","inputs":[],"outputs":[{"name":"","type":"string","internalType":"string"}],"stateMutability":"view"},{"type":"function","name":"TCO2_BATCH_NOT_CONFIRMED","inputs":[],"outputs":[{"name":"","type":"string","internalType":"string"}],"stateMutability":"view"},{"type":"function","name":"TCO2_BATCH_NOT_WHITELISTED","inputs":[],"outputs":[{"name":"","type":"string","internalType":"string"}],"stateMutability":"view"},{"type":"function","name":"TCO2_INVALID_DECIMALS","inputs":[],"outputs":[{"name":"","type":"string","internalType":"string"}],"stateMutability":"view"},{"type":"function","name":"TCO2_MISSING_SERIALS","inputs":[],"outputs":[{"name":"","type":"string","internalType":"string"}],"stateMutability":"view"},{"type":"function","name":"TCO2_NON_MATCHING_NFT","inputs":[],"outputs":[{"name":"","type":"string","internalType":"string"}],"stateMutability":"view"},{"type":"function","name":"TCO2_QTY_HIGHER","inputs":[],"outputs":[{"name":"","type":"string","internalType":"string"}],"stateMutability":"view"}],"bytecode":{"object":"0x610b5761003a600b82828239805160001a60731461002d57634e487b7160e01b600052600060045260246000fd5b30600052607381538281f3fe73000000000000000000000000000000000000000030146080604052600436106103825760003560e01c806389251688116101dd578063bc8284ba1161010e578063e3d7cb82116100ac578063f00f458711610086578063f00f458714610a49578063f18b25b814610a6a578063f900e42314610a8b578063fd7e827214610aac57600080fd5b8063e3d7cb82146109e6578063e61fb34514610a07578063ebddff1a14610a2857600080fd5b8063c9e80bf9116100e8578063c9e80bf914610963578063cd51124a14610984578063d641be40146109a5578063d946c829146109c657600080fd5b8063bc8284ba14610900578063c146ebd714610921578063c9bac3cc1461094257600080fd5b8063a425e6e01161017b578063af81521b11610155578063af81521b1461087c578063b53c23431461089d578063b7269495146108be578063b938664a146108df57600080fd5b8063a425e6e014610819578063a75721ce1461083a578063af6d19901461085b57600080fd5b806398dcdec9116101b757806398dcdec9146107985780639e756452146107b85780639fec0c51146107d8578063a3ff10ce146107f857600080fd5b80638925168814610735578063906349251461075657806395b3f9b51461077757600080fd5b80634d7bc298116102b757806369dd38c71161025557806376341f961161022f57806376341f96146106b257806379195d44146106d357806379951f6f146106f357806380b1f8ad1461071457600080fd5b806369dd38c71461064f5780636b1fcd5714610670578063753390391461069157600080fd5b8063586f7a7a11610291578063586f7a7a146105cc57806359b0254f146105ed5780635f26cd6b1461060e5780636584b7d11461062f57600080fd5b80634d7bc2981461056957806354a36d8d1461058a57806355bbef49146105ab57600080fd5b8063253e7142116103245780633980e2aa116102fe5780633980e2aa146104e65780633b78edfa1461050757806343828ad51461052857806349702d7c1461054957600080fd5b8063253e7142146104835780632b59e8b1146104a4578063371bf33d146104c557600080fd5b8063139b038911610360578063139b0389146103ff57806318bb55b11461042057806318d9e547146104415780631e7ee1d91461046257600080fd5b8063014364fa1461038757806302d208ef146103be57806311ab5f83146103de575b600080fd5b6103a860405180604001604052806002815260200161333960f01b81525081565b6040516103b59190610acc565b60405180910390f35b6103a8604051806040016040528060018152602001601960f91b81525081565b6103a860405180604001604052806002815260200161343560f01b81525081565b6103a860405180604001604052806002815260200161199960f11b81525081565b6103a860405180604001604052806002815260200161343160f01b81525081565b6103a860405180604001604052806002815260200161313960f01b81525081565b6103a8604051806040016040528060028152602001610c4d60f21b81525081565b6103a860405180604001604052806002815260200161034360f41b81525081565b6103a860405180604001604052806002815260200161199b60f11b81525081565b6103a8604051806040016040528060028152602001611a9b60f11b81525081565b6103a860405180604001604052806002815260200161353360f01b81525081565b6103a860405180604001604052806002815260200161333560f01b81525081565b6103a8604051806040016040528060028152602001611a1960f11b81525081565b6103a8604051806040016040528060018152602001603160f81b81525081565b6103a860405180604001604052806002815260200161191b60f11b81525081565b6103a860405180604001604052806002815260200161333160f01b81525081565b6103a860405180604001604052806002815260200161068760f31b81525081565b6103a860405180604001604052806002815260200161062760f31b81525081565b6103a860405180604001604052806002815260200161313360f01b81525081565b6103a860405180604001604052806002815260200161035360f41b81525081565b6103a8604051806040016040528060018152602001600d60fa1b81525081565b6103a8604051806040016040528060028152602001610ccd60f21b81525081565b6103a860405180604001604052806002815260200161343360f01b81525081565b6103a860405180604001604052806002815260200161313760f01b81525081565b6103a860405180604001604052806002815260200161191960f11b81525081565b6103a8604051806040016040528060018152602001601b60f91b81525081565b6103a8604051806040016040528060028152602001611a1b60f11b81525081565b6103a860405180604001604052806002815260200161066760f31b81525081565b6103a860405180604001604052806002815260200161323560f01b81525081565b6103a860405180604001604052806002815260200161343960f01b81525081565b6103a860405180604001604052806002815260200161032360f41b81525081565b6103a8604051806040016040528060018152602001603960f81b81525081565b6103a8604051806040016040528060018152602001603560f81b81525081565b6103a8604051806040016040528060018152602001600760fb1b81525081565b6103a860405180604001604052806002815260200161323360f01b81525081565b6103a860405180604001604052806002815260200161313560f01b81525081565b6103a860405180604001604052806002815260200161353560f01b81525081565b6103a860405180604001604052806002815260200161323160f01b81525081565b6103a860405180604001604052806002815260200161323760f01b81525081565b6103a860405180604001604052806002815260200161064760f31b81525081565b6103a860405180604001604052806002815260200161333360f01b81525081565b6103a860405180604001604052806002815260200161323960f01b81525081565b6103a860405180604001604052806002815260200161333760f01b81525081565b6103a860405180604001604052806002815260200161189960f11b81525081565b6103a860405180604001604052806002815260200161031360f41b81525081565b6103a860405180604001604052806002815260200161313160f01b81525081565b6103a860405180604001604052806002815260200161353160f01b81525081565b6103a860405180604001604052806002815260200161189b60f11b81525081565b6103a8604051806040016040528060018152602001603360f81b81525081565b6103a860405180604001604052806002815260200161033360f41b81525081565b6103a8604051806040016040528060028152602001610d4d60f21b81525081565b6103a8604051806040016040528060028152602001610d0d60f21b81525081565b6103a8604051806040016040528060028152602001611a9960f11b81525081565b6103a860405180604001604052806002815260200161343760f01b81525081565b6103a8604051806040016040528060028152602001610c8d60f21b81525081565b6103a8604051806040016040528060018152602001603760f81b81525081565b600060208083528351808285015260005b81811015610af957858101830151858201604001528201610add565b81811115610b0b576000604083870101525b50601f01601f191692909201604001939250505056fea264697066735822122085f7d3c4825fcebbbf68bad8174782041ddab27f81585f9318fefa1bb868739064736f6c634300080e0033","linkReferences":{}},"methodIdentifiers":{"COB_ALREADY_APPROVED()":"139b0389","COB_ALREADY_FRACTIONALIZED()":"69dd38c7","COB_ALREADY_SUPPORTED()":"a3ff10ce","COB_INVALID_BATCH_OWNER()":"4d7bc298","COB_INVALID_CALLER()":"014364fa","COB_INVALID_NEW_STATUS()":"ebddff1a","COB_INVALID_QUANTITY()":"a75721ce","COB_INVALID_STATUS()":"e3d7cb82","COB_MISSING_VINTAGE()":"54a36d8d","COB_NOT_BATCH_OWNER()":"89251688","COB_NOT_CONFIRMED()":"af81521b","COB_NOT_EXISTS()":"b938664a","COB_NOT_PENDING()":"b7269495","COB_NOT_REJECTED()":"3b78edfa","COB_NOT_REQUESTED_STATUS()":"b53c2343","COB_NOT_VERIFIER_OR_BATCH_OWNER()":"f900e423","COB_NO_TCO2_MINTED()":"43828ad5","COB_ONLY_MINTS()":"6b1fcd57","COB_PAUSED_CONTRACT()":"80b1f8ad","COB_REGISTRY_NOT_SUPPORTED()":"18bb55b1","COB_TCO2_NOT_FOUND()":"253e7142","COB_TRANSFER_NOT_APPROVED()":"bc8284ba","COB_VINTAGE_ALREADY_SET()":"2b59e8b1","CP_BLOCKLISTED()":"6584b7d1","CP_EMPTY_ADDRESS()":"c9e80bf9","CP_EMPTY_ARRAY()":"02d208ef","CP_EXCEEDS_TCO2_SUPPLY()":"d641be40","CP_FEE_TOO_HIGH()":"cd51124a","CP_FULL_POOL()":"d946c829","CP_INVALID_DESTINATION_SELF()":"95b3f9b5","CP_INVALID_DESTINATION_ZERO()":"18d9e547","CP_INVALID_FEE()":"c9bac3cc","CP_INVALID_MAX_FEE()":"f00f4587","CP_LENGTH_MISMATCH()":"c146ebd7","CP_METHODOLOGY_NOT_ACCEPTED()":"98dcdec9","CP_NON_ZERO_REMAINING()":"a425e6e0","CP_NOT_ALLOWLISTED()":"9e756452","CP_NOT_ELIGIBLE()":"76341f96","CP_NOT_EXEMPTED()":"59b0254f","CP_NOT_SUPPORTED()":"3980e2aa","CP_ONLY_OWNER()":"586f7a7a","CP_ONLY_ROUTER()":"75339039","CP_PAUSED_CONTRACT()":"1e7ee1d9","CP_REGION_NOT_ACCEPTED()":"fd7e8272","CP_STANDARD_NOT_ACCEPTED()":"9fec0c51","CP_START_TIME_TOO_OLD()":"79195d44","CP_UNAUTHORIZED()":"49702d7c","CP_ZERO_AMOUNT()":"af6d1990","TCO2_APPROVAL_AMT_FAILED()":"79951f6f","TCO2_BATCH_AMT_INVALID()":"11ab5f83","TCO2_BATCH_NOT_CONFIRMED()":"f18b25b8","TCO2_BATCH_NOT_WHITELISTED()":"55bbef49","TCO2_INVALID_DECIMALS()":"e61fb345","TCO2_MISSING_SERIALS()":"371bf33d","TCO2_NON_MATCHING_NFT()":"90634925","TCO2_QTY_HIGHER()":"5f26cd6b"},"id":31}