{"abi":[{"type":"function","name":"DETOKENIZER_ROLE","inputs":[],"outputs":[{"name":"","type":"bytes32","internalType":"bytes32"}],"stateMutability":"view"},{"type":"function","name":"RETIREMENT_ROLE","inputs":[],"outputs":[{"name":"","type":"bytes32","internalType":"bytes32"}],"stateMutability":"view"},{"type":"function","name":"TOKENIZER_ROLE","inputs":[],"outputs":[{"name":"","type":"bytes32","internalType":"bytes32"}],"stateMutability":"view"},{"type":"function","name":"VERSION","inputs":[],"outputs":[{"name":"","type":"string","internalType":"string"}],"stateMutability":"view"},{"type":"function","name":"VERSION_RELEASE_CANDIDATE","inputs":[],"outputs":[{"name":"","type":"uint256","internalType":"uint256"}],"stateMutability":"view"},{"type":"function","name":"allowance","inputs":[{"name":"owner","type":"address","internalType":"address"},{"name":"spender","type":"address","internalType":"address"}],"outputs":[{"name":"","type":"uint256","internalType":"uint256"}],"stateMutability":"view"},{"type":"function","name":"approve","inputs":[{"name":"spender","type":"address","internalType":"address"},{"name":"amount","type":"uint256","internalType":"uint256"}],"outputs":[{"name":"","type":"bool","internalType":"bool"}],"stateMutability":"nonpayable"},{"type":"function","name":"balanceOf","inputs":[{"name":"account","type":"address","internalType":"address"}],"outputs":[{"name":"","type":"uint256","internalType":"uint256"}],"stateMutability":"view"},{"type":"function","name":"bridgeBurn","inputs":[{"name":"account","type":"address","internalType":"address"},{"name":"amount","type":"uint256","internalType":"uint256"}],"outputs":[],"stateMutability":"nonpayable"},{"type":"function","name":"bridgeMint","inputs":[{"name":"account","type":"address","internalType":"address"},{"name":"amount","type":"uint256","internalType":"uint256"}],"outputs":[],"stateMutability":"nonpayable"},{"type":"function","name":"burnFrom","inputs":[{"name":"account","type":"address","internalType":"address"},{"name":"amount","type":"uint256","internalType":"uint256"}],"outputs":[],"stateMutability":"nonpayable"},{"type":"function","name":"contractRegistry","inputs":[],"outputs":[{"name":"","type":"address","internalType":"address"}],"stateMutability":"view"},{"type":"function","name":"count","inputs":[{"name":"","type":"uint256","internalType":"uint256"}],"outputs":[{"name":"","type":"uint256","internalType":"uint256"}],"stateMutability":"view"},{"type":"function","name":"decimals","inputs":[],"outputs":[{"name":"","type":"uint8","internalType":"uint8"}],"stateMutability":"view"},{"type":"function","name":"decreaseAllowance","inputs":[{"name":"spender","type":"address","internalType":"address"},{"name":"subtractedValue","type":"uint256","internalType":"uint256"}],"outputs":[{"name":"","type":"bool","internalType":"bool"}],"stateMutability":"nonpayable"},{"type":"function","name":"defractionalize","inputs":[{"name":"tokenId","type":"uint256","internalType":"uint256"}],"outputs":[],"stateMutability":"nonpayable"},{"type":"function","name":"getAttributes","inputs":[],"outputs":[{"name":"","type":"tuple","internalType":"struct ProjectData","components":[{"name":"projectId","type":"string","internalType":"string"},{"name":"standard","type":"string","internalType":"string"},{"name":"methodology","type":"string","internalType":"string"},{"name":"region","type":"string","internalType":"string"},{"name":"storageMethod","type":"string","internalType":"string"},{"name":"method","type":"string","internalType":"string"},{"name":"emissionType","type":"string","internalType":"string"},{"name":"category","type":"string","internalType":"string"},{"name":"uri","type":"string","internalType":"string"},{"name":"beneficiary","type":"address","internalType":"address"}]},{"name":"","type":"tuple","internalType":"struct VintageData","components":[{"name":"name","type":"string","internalType":"string"},{"name":"startTime","type":"uint64","internalType":"uint64"},{"name":"endTime","type":"uint64","internalType":"uint64"},{"name":"projectTokenId","type":"uint256","internalType":"uint256"},{"name":"totalVintageQuantity","type":"uint64","internalType":"uint64"},{"name":"isCorsiaCompliant","type":"bool","internalType":"bool"},{"name":"isCCPcompliant","type":"bool","internalType":"bool"},{"name":"coBenefits","type":"string","internalType":"string"},{"name":"correspAdjustment","type":"string","internalType":"string"},{"name":"additionalCertification","type":"string","internalType":"string"},{"name":"uri","type":"string","internalType":"string"},{"name":"registry","type":"string","internalType":"string"}]}],"stateMutability":"view"},{"type":"function","name":"getDepositCap","inputs":[],"outputs":[{"name":"","type":"uint256","internalType":"uint256"}],"stateMutability":"view"},{"type":"function","name":"getGlobalProjectVintageIdentifiers","inputs":[],"outputs":[{"name":"","type":"string","internalType":"string"},{"name":"","type":"string","internalType":"string"}],"stateMutability":"view"},{"type":"function","name":"getRemaining","inputs":[],"outputs":[{"name":"remaining","type":"uint256","internalType":"uint256"}],"stateMutability":"view"},{"type":"function","name":"getVintageData","inputs":[],"outputs":[{"name":"vintageData","type":"tuple","internalType":"struct VintageData","components":[{"name":"name","type":"string","internalType":"string"},{"name":"startTime","type":"uint64","internalType":"uint64"},{"name":"endTime","type":"uint64","internalType":"uint64"},{"name":"projectTokenId","type":"uint256","internalType":"uint256"},{"name":"totalVintageQuantity","type":"uint64","internalType":"uint64"},{"name":"isCorsiaCompliant","type":"bool","internalType":"bool"},{"name":"isCCPcompliant","type":"bool","internalType":"bool"},{"name":"coBenefits","type":"string","internalType":"string"},{"name":"correspAdjustment","type":"string","internalType":"string"},{"name":"additionalCertification","type":"string","internalType":"string"},{"name":"uri","type":"string","internalType":"string"},{"name":"registry","type":"string","internalType":"string"}]}],"stateMutability":"view"},{"type":"function","name":"increaseAllowance","inputs":[{"name":"spender","type":"address","internalType":"address"},{"name":"addedValue","type":"uint256","internalType":"uint256"}],"outputs":[{"name":"","type":"bool","internalType":"bool"}],"stateMutability":"nonpayable"},{"type":"function","name":"initialize","inputs":[{"name":"name_","type":"string","internalType":"string"},{"name":"symbol_","type":"string","internalType":"string"},{"name":"projectVintageTokenId_","type":"uint256","internalType":"uint256"},{"name":"contractRegistry_","type":"address","internalType":"address"}],"outputs":[],"stateMutability":"nonpayable"},{"type":"function","name":"mintCertificateLegacy","inputs":[{"name":"retiringEntityString","type":"string","internalType":"string"},{"name":"beneficiary","type":"address","internalType":"address"},{"name":"beneficiaryString","type":"string","internalType":"string"},{"name":"retirementMessage","type":"string","internalType":"string"}],"outputs":[],"stateMutability":"nonpayable"},{"type":"function","name":"minterToId","inputs":[{"name":"","type":"address","internalType":"address"}],"outputs":[{"name":"","type":"uint256","internalType":"uint256"}],"stateMutability":"view"},{"type":"function","name":"name","inputs":[],"outputs":[{"name":"","type":"string","internalType":"string"}],"stateMutability":"view"},{"type":"function","name":"onERC721Received","inputs":[{"name":"","type":"address","internalType":"address"},{"name":"from","type":"address","internalType":"address"},{"name":"tokenId","type":"uint256","internalType":"uint256"},{"name":"","type":"bytes","internalType":"bytes"}],"outputs":[{"name":"","type":"bytes4","internalType":"bytes4"}],"stateMutability":"nonpayable"},{"type":"function","name":"projectVintageTokenId","inputs":[],"outputs":[{"name":"","type":"uint256","internalType":"uint256"}],"stateMutability":"view"},{"type":"function","name":"retire","inputs":[{"name":"amount","type":"uint256","internalType":"uint256"}],"outputs":[{"name":"retirementEventId","type":"uint256","internalType":"uint256"}],"stateMutability":"nonpayable"},{"type":"function","name":"retireAndMintCertificate","inputs":[{"name":"retiringEntityString","type":"string","internalType":"string"},{"name":"beneficiary","type":"address","internalType":"address"},{"name":"beneficiaryString","type":"string","internalType":"string"},{"name":"retirementMessage","type":"string","internalType":"string"},{"name":"amount","type":"uint256","internalType":"uint256"}],"outputs":[],"stateMutability":"nonpayable"},{"type":"function","name":"retireFrom","inputs":[{"name":"account","type":"address","internalType":"address"},{"name":"amount","type":"uint256","internalType":"uint256"}],"outputs":[{"name":"retirementEventId","type":"uint256","internalType":"uint256"}],"stateMutability":"nonpayable"},{"type":"function","name":"standardRegistry","inputs":[],"outputs":[{"name":"","type":"string","internalType":"string"}],"stateMutability":"pure"},{"type":"function","name":"standardRegistryDecimals","inputs":[],"outputs":[{"name":"","type":"uint8","internalType":"uint8"}],"stateMutability":"pure"},{"type":"function","name":"storeCount","inputs":[{"name":"var1","type":"uint256","internalType":"uint256"},{"name":"var2","type":"uint256","internalType":"uint256"}],"outputs":[],"stateMutability":"nonpayable"},{"type":"function","name":"symbol","inputs":[],"outputs":[{"name":"","type":"string","internalType":"string"}],"stateMutability":"view"},{"type":"function","name":"totalSupply","inputs":[],"outputs":[{"name":"","type":"uint256","internalType":"uint256"}],"stateMutability":"view"},{"type":"function","name":"transfer","inputs":[{"name":"recipient","type":"address","internalType":"address"},{"name":"amount","type":"uint256","internalType":"uint256"}],"outputs":[{"name":"","type":"bool","internalType":"bool"}],"stateMutability":"nonpayable"},{"type":"function","name":"transferFrom","inputs":[{"name":"sender","type":"address","internalType":"address"},{"name":"recipient","type":"address","internalType":"address"},{"name":"amount","type":"uint256","internalType":"uint256"}],"outputs":[{"name":"","type":"bool","internalType":"bool"}],"stateMutability":"nonpayable"},{"type":"event","name":"Approval","inputs":[{"name":"owner","type":"address","indexed":true,"internalType":"address"},{"name":"spender","type":"address","indexed":true,"internalType":"address"},{"name":"value","type":"uint256","indexed":false,"internalType":"uint256"}],"anonymous":false},{"type":"event","name":"FeeBurnt","inputs":[{"name":"bridger","type":"address","indexed":false,"internalType":"address"},{"name":"fees","type":"uint256","indexed":false,"internalType":"uint256"}],"anonymous":false},{"type":"event","name":"FeePaid","inputs":[{"name":"bridger","type":"address","indexed":false,"internalType":"address"},{"name":"fees","type":"uint256","indexed":false,"internalType":"uint256"}],"anonymous":false},{"type":"event","name":"Initialized","inputs":[{"name":"version","type":"uint8","indexed":false,"internalType":"uint8"}],"anonymous":false},{"type":"event","name":"Retired","inputs":[{"name":"sender","type":"address","indexed":false,"internalType":"address"},{"name":"amount","type":"uint256","indexed":false,"internalType":"uint256"},{"name":"eventId","type":"uint256","indexed":false,"internalType":"uint256"}],"anonymous":false},{"type":"event","name":"Transfer","inputs":[{"name":"from","type":"address","indexed":true,"internalType":"address"},{"name":"to","type":"address","indexed":true,"internalType":"address"},{"name":"value","type":"uint256","indexed":false,"internalType":"uint256"}],"anonymous":false}],"bytecode":{"object":"0x60806040523480156200001157600080fd5b506200001c62000022565b62000152565b6200002e60ff62000031565b50565b60008054610100900460ff1615620000ca578160ff1660011480156200006a575062000068306200014360201b620023211760201c565b155b620000c25760405162461bcd60e51b815260206004820152602e6024820152600080516020620043e983398151915260448201526d191e481a5b9a5d1a585b1a5e995960921b60648201526084015b60405180910390fd5b506000919050565b60005460ff808416911610620001295760405162461bcd60e51b815260206004820152602e6024820152600080516020620043e983398151915260448201526d191e481a5b9a5d1a585b1a5e995960921b6064820152608401620000b9565b506000805460ff191660ff92909216919091179055600190565b6001600160a01b03163b151590565b61428780620001626000396000f3fe608060405234801561001057600080fd5b50600436106102325760003560e01c80636b24ffd61161013057806395d89b41116100b8578063d6a022b81161007c578063d6a022b814610528578063dd62ed3e14610530578063e819426c14610543578063e9d5c8d51461054b578063ffa1ad741461056b57600080fd5b806395d89b41146104bc578063a457c2d7146104c4578063a9059cbb146104d7578063abf410e5146104ea578063bd3a13f61461051557600080fd5b80637903c7d0116100ff5780637903c7d01461043c57806379cc67901461044f5780637c873cde1461046257806383f2fc3e146104825780638c2a993e146104a957600080fd5b80636b24ffd6146103e55780636ca0b0d7146103f857806370a082311461040057806374f4f5471461042957600080fd5b80632ef29290116101be5780633b3546c8116101825780633b3546c8146103805780633c31175e146103a05780635c6f3a90146103a857806364c5a403146103cf57806365ec18091461033657600080fd5b80632ef2929014610323578063313ce567146103365780633633f35f146103455780633790cf571461035a578063395093511461036d57600080fd5b8063095ea7b311610205578063095ea7b3146102a3578063150b7a02146102c6578063152583de146102f257806318160ddd1461030857806323b872dd1461031057600080fd5b806301a598da146102375780630605a3341461025257806306fdde0314610279578063077c6f2b1461028e575b600080fd5b61023f61058f565b6040519081526020015b60405180910390f35b61023f7fe70d28ebd9d7d9a3dd77d46ae2481f301c80806f395b08de31d8e095b1c46cee81565b6102816105e8565b60405161024991906131b6565b6102a161029c366004613229565b610623565b005b6102b66102b13660046132d7565b610884565b6040519015158152602001610249565b6102d96102d4366004613303565b61089e565b6040516001600160e01b03199091168152602001610249565b6102fa610e68565b6040516102499291906134a1565b60355461023f565b6102b661031e3660046135e0565b611061565b6102a1610331366004613621565b6111a4565b60405160128152602001610249565b61034d6113c6565b60405161024991906136d6565b61023f6103683660046136e9565b6114bb565b6102b661037b3660046132d7565b6115cf565b61023f61038e3660046136e9565b60676020526000908152604090205481565b6102816115f1565b61023f7ffb7778e60e898528875e31f94e3a623d6302be2aa540c7a7f5ae26fe5ee2498d81565b6103d7611610565b604051610249929190613702565b61023f6103f33660046132d7565b61163a565b61023f600181565b61023f61040e366004613727565b6001600160a01b031660009081526033602052604090205490565b6102a16104373660046132d7565b61175a565b6102a161044a3660046136e9565b61198f565b6102a161045d3660046132d7565b611d08565b6102a1610470366004613744565b60009182526067602052604090912055565b61023f7ff70ccd5004a2a6f964f044c0095454c529799f8602238d52b5a197af351dd41981565b6102a16104b73660046132d7565b611e22565b61028161204f565b6102b66104d23660046132d7565b612074565b6102b66104e53660046132d7565b6120fa565b6066546104fd906001600160a01b031681565b6040516001600160a01b039091168152602001610249565b6102a1610523366004613875565b61223b565b61023f6122d6565b61023f61053e3660046138f4565b6122f6565b60655461023f565b61023f610559366004613727565b60686020526000908152604090205481565b610281604051806040016040528060058152602001640312e362e360dc1b81525081565b6000610599612fe9565b6105a1610e68565b6080810151909250905060006105b96012600a613a27565b6105cc906001600160401b038416613a36565b9050806000036105e157600019935050505090565b9392505050565b60608060606105f5611610565b604051919350915061060d9083908390602001613a55565b6040516020818303038152906040529250505090565b6066546000906001600160a01b03166391148b2761063f6115f1565b6040518263ffffffff1660e01b815260040161065b91906131b6565b602060405180830381865afa158015610678573d6000803e3d6000fd5b505050506040513d601f19601f8201168201806040525081019061069c9190613abe565b90506000816001600160a01b0316635c975abb6040518163ffffffff1660e01b8152600401602060405180830381865afa1580156106de573d6000803e3d6000fd5b505050506040513d601f19601f820116820180604052508101906107029190613aeb565b9050801561072b5760405162461bcd60e51b815260040161072290613b06565b60405180910390fd5b6000610735612330565b6040805160018082528183019092529192506000919060208083019080368337019050509050818160008151811061076f5761076f613b2b565b6020026020010181815250506000606660009054906101000a90046001600160a01b03166001600160a01b031663376b5dce6040518163ffffffff1660e01b8152600401602060405180830381865afa1580156107d0573d6000803e3d6000fd5b505050506040513d601f19601f820116820180604052508101906107f49190613abe565b9050806001600160a01b031663163c1319338e8e8e8e8e8e8e8b6040518a63ffffffff1660e01b815260040161083299989796959493929190613ba5565b6020604051808303816000875af1158015610851573d6000803e3d6000fd5b505050506040513d601f19601f820116820180604052508101906108759190613c1d565b50505050505050505050505050565b600033610892818585612441565b60019150505b92915050565b60665460009081906001600160a01b03166391148b276108bc6115f1565b6040518263ffffffff1660e01b81526004016108d891906131b6565b602060405180830381865afa1580156108f5573d6000803e3d6000fd5b505050506040513d601f19601f820116820180604052508101906109199190613abe565b90506000816001600160a01b0316635c975abb6040518163ffffffff1660e01b8152600401602060405180830381865afa15801561095b573d6000803e3d6000fd5b505050506040513d601f19601f8201168201806040525081019061097f9190613aeb565b9050801561099f5760405162461bcd60e51b815260040161072290613b06565b6109a833612566565b60405180604001604052806002815260200161068760f31b815250906109e15760405162461bcd60e51b815260040161072291906131b6565b5060008060006109f1338a612601565b925092509250606554831460405180604001604052806002815260200161343960f01b81525090610a355760405162461bcd60e51b815260040161072291906131b6565b506003816006811115610a4a57610a4a613c36565b1480610a6757506005816006811115610a6557610a65613c36565b145b15610a7f5750630a85bd0160e11b9450610e5d915050565b6002816006811115610a9357610a93613c36565b1460405180604001604052806002815260200161343760f01b81525090610acd5760405162461bcd60e51b815260040161072291906131b6565b5081610ad76122d6565b101560405180604001604052806002815260200161035360f41b81525090610b125760405162461bcd60e51b815260040161072291906131b6565b506001600160a01b03808b1660009081526068602052604081208b90556066549091166391148b27610b426115f1565b6040518263ffffffff1660e01b8152600401610b5e91906131b6565b602060405180830381865afa158015610b7b573d6000803e3d6000fd5b505050506040513d601f19601f82011682018060405250810190610b9f9190613abe565b90506000816001600160a01b03166380e2d3f06040518163ffffffff1660e01b8152600401602060405180830381865afa158015610be1573d6000803e3d6000fd5b505050506040513d601f19601f82011682018060405250810190610c059190613abe565b90506001600160a01b038116610c2457610c1f8c85612699565b610e4d565b6040516379bcd2d160e11b81526004810185905260009081906001600160a01b0385169063f379a5a2906024016040805180830381865afa158015610c6d573d6000803e3d6000fd5b505050506040513d601f19601f82011682018060405250810190610c919190613c4c565b9092509050610ca98e610ca48489613c70565b612699565b6000846001600160a01b031663581cd1106040518163ffffffff1660e01b8152600401602060405180830381865afa158015610ce9573d6000803e3d6000fd5b505050506040513d601f19601f82011682018060405250810190610d0d9190613abe565b90506001600160a01b03811615801590610d275750600082115b15610deb57610d368284613c70565b9250610d428484612699565b610d4c8183612699565b7f075a2720282fdf622141dae0b048ef90a21a7e57c134c76912d19d006b3b3f6f8f84604051610d919291906001600160a01b03929092168252602082015260400190565b60405180910390a17fa2f0f5180dc62f2d34c8207f1d18178d31bd0de616f83636434ddf48de0ae6fa8f83604051610dde9291906001600160a01b03929092168252602082015260400190565b60405180910390a1610e49565b8215610e4957610dfb8484612699565b7f075a2720282fdf622141dae0b048ef90a21a7e57c134c76912d19d006b3b3f6f8f84604051610e409291906001600160a01b03929092168252602082015260400190565b60405180910390a15b5050505b50630a85bd0160e11b9650505050505b505095945050505050565b610e70613069565b610e78612fe9565b606654604080516301157a8360e01b815290516000926001600160a01b0316916301157a839160048083019260209291908290030181865afa158015610ec2573d6000803e3d6000fd5b505050506040513d601f19601f82011682018060405250810190610ee69190613abe565b90506000606660009054906101000a90046001600160a01b03166001600160a01b031663a0af25606040518163ffffffff1660e01b8152600401602060405180830381865afa158015610f3d573d6000803e3d6000fd5b505050506040513d601f19601f82011682018060405250810190610f619190613abe565b90506000816001600160a01b03166315bbf0746065546040518263ffffffff1660e01b8152600401610f9591815260200190565b600060405180830381865afa158015610fb2573d6000803e3d6000fd5b505050506040513d6000823e601f3d908101601f19168201604052610fda9190810190613ce3565b90506000836001600160a01b03166347e3168683606001516040518263ffffffff1660e01b815260040161101091815260200190565b600060405180830381865afa15801561102d573d6000803e3d6000fd5b505050506040513d6000823e601f3d908101601f191682016040526110559190810190613e6d565b96919550909350505050565b6000826001600160a01b03811661107757600080fd5b306001600160a01b0382160361108c57600080fd5b6066546000906001600160a01b03166391148b276110a86115f1565b6040518263ffffffff1660e01b81526004016110c491906131b6565b602060405180830381865afa1580156110e1573d6000803e3d6000fd5b505050506040513d601f19601f820116820180604052508101906111059190613abe565b90506000816001600160a01b0316635c975abb6040518163ffffffff1660e01b8152600401602060405180830381865afa158015611147573d6000803e3d6000fd5b505050506040513d601f19601f8201168201806040525081019061116b9190613aeb565b9050801561118b5760405162461bcd60e51b815260040161072290613b06565b611196878787612778565b506001979650505050505050565b6066546000906001600160a01b03166391148b276111c06115f1565b6040518263ffffffff1660e01b81526004016111dc91906131b6565b602060405180830381865afa1580156111f9573d6000803e3d6000fd5b505050506040513d601f19601f8201168201806040525081019061121d9190613abe565b90506000816001600160a01b0316635c975abb6040518163ffffffff1660e01b8152600401602060405180830381865afa15801561125f573d6000803e3d6000fd5b505050506040513d601f19601f820116820180604052508101906112839190613aeb565b905080156112a35760405162461bcd60e51b815260040161072290613b06565b604080516000610140820181815261016083018452825260208083018790528351601f8e0182900482028101820185528d81529193830191908e908e90819084018382808284376000920191909152505050908252506001600160a01b038b1660208083019190915260408051601f8c0183900483028101830182528b8152920191908b908b9081908401838280828437600092019190915250505090825250604080516020601f8a0181900481028201810190925288815291810191908990899081908401838280828437600092018290525093855250506040805160208181018352848252808601919091528151908101825283815290840152506060820181905260809091015290506113b93382612791565b5050505050505050505050565b6113ce612fe9565b60665460408051630505792b60e51b815290516000926001600160a01b03169163a0af25609160048083019260209291908290030181865afa158015611418573d6000803e3d6000fd5b505050506040513d601f19601f8201168201806040525081019061143c9190613abe565b60655460405163056efc1d60e21b81529192506001600160a01b038316916315bbf074916114709160040190815260200190565b600060405180830381865afa15801561148d573d6000803e3d6000fd5b505050506040513d6000823e601f3d908101601f191682016040526114b59190810190613ce3565b91505090565b60665460009081906001600160a01b03166391148b276114d96115f1565b6040518263ffffffff1660e01b81526004016114f591906131b6565b602060405180830381865afa158015611512573d6000803e3d6000fd5b505050506040513d601f19601f820116820180604052508101906115369190613abe565b90506000816001600160a01b0316635c975abb6040518163ffffffff1660e01b8152600401602060405180830381865afa158015611578573d6000803e3d6000fd5b505050506040513d601f19601f8201168201806040525081019061159c9190613aeb565b905080156115bc5760405162461bcd60e51b815260040161072290613b06565b6115c73385336129cd565b949350505050565b6000336108928185856115e283836122f6565b6115ec9190614012565b612441565b604080518082019091526005815264766572726160d81b602082015290565b60608061161b613069565b611623612fe9565b61162b610e68565b90519051909590945092505050565b60665460009081906001600160a01b03166391148b276116586115f1565b6040518263ffffffff1660e01b815260040161167491906131b6565b602060405180830381865afa158015611691573d6000803e3d6000fd5b505050506040513d601f19601f820116820180604052508101906116b59190613abe565b90506000816001600160a01b0316635c975abb6040518163ffffffff1660e01b8152600401602060405180830381865afa1580156116f7573d6000803e3d6000fd5b505050506040513d601f19601f8201168201806040525081019061171b9190613aeb565b9050801561173b5760405162461bcd60e51b815260040161072290613b06565b611746853386612b24565b6117518585876129cd565b95945050505050565b6066546000906001600160a01b03166391148b276117766115f1565b6040518263ffffffff1660e01b815260040161179291906131b6565b602060405180830381865afa1580156117af573d6000803e3d6000fd5b505050506040513d601f19601f820116820180604052508101906117d39190613abe565b90506000816001600160a01b0316635c975abb6040518163ffffffff1660e01b8152600401602060405180830381865afa158015611815573d6000803e3d6000fd5b505050506040513d601f19601f820116820180604052508101906118399190613aeb565b905080156118595760405162461bcd60e51b815260040161072290613b06565b6066546000906001600160a01b03166391148b276118756115f1565b6040518263ffffffff1660e01b815260040161189191906131b6565b602060405180830381865afa1580156118ae573d6000803e3d6000fd5b505050506040513d601f19601f820116820180604052508101906118d29190613abe565b6040516311afe75f60e11b81523360048201529091506000906001600160a01b0383169063235fcebe90602401602060405180830381865afa15801561191c573d6000803e3d6000fd5b505050506040513d601f19601f820116820180604052508101906119409190613aeb565b90508061197d5760405162461bcd60e51b815260206004820152600b60248201526a139bdd08185b1b1bddd95960aa1b6044820152606401610722565b6119878686612b98565b505050505050565b6066546000906001600160a01b03166391148b276119ab6115f1565b6040518263ffffffff1660e01b81526004016119c791906131b6565b602060405180830381865afa1580156119e4573d6000803e3d6000fd5b505050506040513d601f19601f82011682018060405250810190611a089190613abe565b90506000816001600160a01b0316635c975abb6040518163ffffffff1660e01b8152600401602060405180830381865afa158015611a4a573d6000803e3d6000fd5b505050506040513d601f19601f82011682018060405250810190611a6e9190613aeb565b90508015611a8e5760405162461bcd60e51b815260040161072290613b06565b6066546000906001600160a01b03166391148b27611aaa6115f1565b6040518263ffffffff1660e01b8152600401611ac691906131b6565b602060405180830381865afa158015611ae3573d6000803e3d6000fd5b505050506040513d601f19601f82011682018060405250810190611b079190613abe565b90506000816001600160a01b0316638da5cb5b6040518163ffffffff1660e01b8152600401602060405180830381865afa158015611b49573d6000803e3d6000fd5b505050506040513d601f19601f82011682018060405250810190611b6d9190613abe565b90506001600160a01b0381163314611bbb5760405162461bcd60e51b81526020600482015260116024820152702737ba103330b1ba37b93c9037bbb732b960791b6044820152606401610722565b60665460408051634be4e3dd60e01b815290516000926001600160a01b031691634be4e3dd9160048083019260209291908290030181865afa158015611c05573d6000803e3d6000fd5b505050506040513d601f19601f82011682018060405250810190611c299190613abe565b9050600080611c388389612601565b909350915060029050816006811115611c5357611c53613c36565b1460405180604001604052806002815260200161343760f01b81525090611c8d5760405162461bcd60e51b815260040161072291906131b6565b50611c983383612b98565b6040516323b872dd60e01b8152306004820152336024820152604481018990526001600160a01b038416906323b872dd90606401600060405180830381600087803b158015611ce657600080fd5b505af1158015611cfa573d6000803e3d6000fd5b505050505050505050505050565b6066546000906001600160a01b03166391148b27611d246115f1565b6040518263ffffffff1660e01b8152600401611d4091906131b6565b602060405180830381865afa158015611d5d573d6000803e3d6000fd5b505050506040513d601f19601f82011682018060405250810190611d819190613abe565b90506000816001600160a01b0316635c975abb6040518163ffffffff1660e01b8152600401602060405180830381865afa158015611dc3573d6000803e3d6000fd5b505050506040513d601f19601f82011682018060405250810190611de79190613aeb565b90508015611e075760405162461bcd60e51b815260040161072290613b06565b611e12843385612b24565b611e1c8484612b98565b50505050565b6066546000906001600160a01b03166391148b27611e3e6115f1565b6040518263ffffffff1660e01b8152600401611e5a91906131b6565b602060405180830381865afa158015611e77573d6000803e3d6000fd5b505050506040513d601f19601f82011682018060405250810190611e9b9190613abe565b90506000816001600160a01b0316635c975abb6040518163ffffffff1660e01b8152600401602060405180830381865afa158015611edd573d6000803e3d6000fd5b505050506040513d601f19601f82011682018060405250810190611f019190613aeb565b90508015611f215760405162461bcd60e51b815260040161072290613b06565b6066546000906001600160a01b03166391148b27611f3d6115f1565b6040518263ffffffff1660e01b8152600401611f5991906131b6565b602060405180830381865afa158015611f76573d6000803e3d6000fd5b505050506040513d601f19601f82011682018060405250810190611f9a9190613abe565b6040516311afe75f60e11b81523360048201529091506000906001600160a01b0383169063235fcebe90602401602060405180830381865afa158015611fe4573d6000803e3d6000fd5b505050506040513d601f19601f820116820180604052508101906120089190613aeb565b9050806120455760405162461bcd60e51b815260206004820152600b60248201526a139bdd08185b1b1bddd95960aa1b6044820152606401610722565b6119878686612699565b606080606061205c611610565b604051919350915061060d908390839060200161402a565b6000338161208282866122f6565b9050838110156120e25760405162461bcd60e51b815260206004820152602560248201527f45524332303a2064656372656173656420616c6c6f77616e63652062656c6f77604482015264207a65726f60d81b6064820152608401610722565b6120ef8286868403612441565b506001949350505050565b6000826001600160a01b03811661211057600080fd5b306001600160a01b0382160361212557600080fd5b6066546000906001600160a01b03166391148b276121416115f1565b6040518263ffffffff1660e01b815260040161215d91906131b6565b602060405180830381865afa15801561217a573d6000803e3d6000fd5b505050506040513d601f19601f8201168201806040525081019061219e9190613abe565b90506000816001600160a01b0316635c975abb6040518163ffffffff1660e01b8152600401602060405180830381865afa1580156121e0573d6000803e3d6000fd5b505050506040513d601f19601f820116820180604052508101906122049190613aeb565b905080156122245760405162461bcd60e51b815260040161072290613b06565b61222e8686612ce3565b5060019695505050505050565b60006122476001612cf1565b9050801561225f576000805461ff0019166101001790555b6122698585612d71565b6065839055606680546001600160a01b0319166001600160a01b03841617905580156122cf576000805461ff0019169055604051600181527f7f26b83ff96e1f2b6a682f133852f6798a09c465da95921460cefb38474024989060200160405180910390a15b5050505050565b6000806122e161058f565b90506122ec60355490565b6114b59082613c70565b6001600160a01b03918216600090815260346020908152604080832093909416825291909152205490565b6001600160a01b03163b151590565b3360009081526069602090815260408083208054908490556066548251631bb5aee760e11b81529251919385936001600160a01b039092169263376b5dce9260048082019392918290030181865afa158015612390573d6000803e3d6000fd5b505050506040513d601f19601f820116820180604052508101906123b49190613abe565b6065546040516313ef24f760e11b8152336004820152602481019190915260448101849052600160648201529091506001600160a01b038216906327de49ee906084016020604051808303816000875af1158015612416573d6000803e3d6000fd5b505050506040513d601f19601f8201168201806040525081019061243a9190613c1d565b9250505090565b6001600160a01b0383166124a35760405162461bcd60e51b8152602060048201526024808201527f45524332303a20617070726f76652066726f6d20746865207a65726f206164646044820152637265737360e01b6064820152608401610722565b6001600160a01b0382166125045760405162461bcd60e51b815260206004820152602260248201527f45524332303a20617070726f766520746f20746865207a65726f206164647265604482015261737360f01b6064820152608401610722565b6001600160a01b0383811660008181526034602090815260408083209487168084529482529182902085905590518481527f8c5be1e5ebec7d5bd14f71427d1e84f3dd0314c0f7b2291e5b200ac8c7c3b92591015b60405180910390a3505050565b60665460408051634be4e3dd60e01b815290516000926001600160a01b031691634be4e3dd9160048083019260209291908290030181865afa1580156125b0573d6000803e3d6000fd5b505050506040513d601f19601f820116820180604052508101906125d49190613abe565b6001600160a01b0316826001600160a01b0316036125f457506001919050565b506000919050565b919050565b600080600080600080876001600160a01b031663dff35e83886040518263ffffffff1660e01b815260040161263891815260200190565b606060405180830381865afa158015612655573d6000803e3d6000fd5b505050506040513d601f19601f820116820180604052508101906126799190614077565b9250925092508261268983612e03565b9096509450925050509250925092565b6001600160a01b0382166126ef5760405162461bcd60e51b815260206004820152601f60248201527f45524332303a206d696e7420746f20746865207a65726f2061646472657373006044820152606401610722565b80603560008282546127019190614012565b90915550506001600160a01b0382166000908152603360205260408120805483929061272e908490614012565b90915550506040518181526001600160a01b038316906000907fddf252ad1be2c89b69c2b068fc378daa952ba7f163c4a11628f55a4df523b3ef9060200160405180910390a35050565b600033612786858285612b24565b6120ef858585612e1b565b6066546000906001600160a01b03166391148b276127ad6115f1565b6040518263ffffffff1660e01b81526004016127c991906131b6565b602060405180830381865afa1580156127e6573d6000803e3d6000fd5b505050506040513d601f19601f8201168201806040525081019061280a9190613abe565b90506000816001600160a01b0316635c975abb6040518163ffffffff1660e01b8152600401602060405180830381865afa15801561284c573d6000803e3d6000fd5b505050506040513d601f19601f820116820180604052508101906128709190613aeb565b905080156128905760405162461bcd60e51b815260040161072290613b06565b60006128a1338560200151876129cd565b604080516001808252818301909252919250600091906020808301908036833701905050905081816000815181106128db576128db613b2b565b60209081029190910181019190915260665460408051631bb5aee760e11b815290516001600160a01b039092169263376b5dce926004808401938290030181865afa15801561292e573d6000803e3d6000fd5b505050506040513d601f19601f820116820180604052508101906129529190613abe565b6001600160a01b031663cc91e5e98787846040518463ffffffff1660e01b8152600401612981939291906140b4565b6020604051808303816000875af11580156129a0573d6000803e3d6000fd5b505050506040513d601f19601f820116820180604052508101906129c49190613c1d565b50505050505050565b60006129d98484612b98565b60665460408051631bb5aee760e11b815290516000926001600160a01b03169163376b5dce9160048083019260209291908290030181865afa158015612a23573d6000803e3d6000fd5b505050506040513d601f19601f82011682018060405250810190612a479190613abe565b6065546040516313ef24f760e11b81526001600160a01b038681166004830152602482019290925260448101879052600060648201529192508216906327de49ee906084016020604051808303816000875af1158015612aab573d6000803e3d6000fd5b505050506040513d601f19601f82011682018060405250810190612acf9190613c1d565b604080516001600160a01b0386168152602081018790529081018290529092507fb3775f672e1adf43bf7834b692675bfee4db72f83e42da8cff694ca295a89eca9060600160405180910390a1509392505050565b6000612b3084846122f6565b90506000198114611e1c5781811015612b8b5760405162461bcd60e51b815260206004820152601d60248201527f45524332303a20696e73756666696369656e7420616c6c6f77616e63650000006044820152606401610722565b611e1c8484848403612441565b6001600160a01b038216612bf85760405162461bcd60e51b815260206004820152602160248201527f45524332303a206275726e2066726f6d20746865207a65726f206164647265736044820152607360f81b6064820152608401610722565b6001600160a01b03821660009081526033602052604090205481811015612c6c5760405162461bcd60e51b815260206004820152602260248201527f45524332303a206275726e20616d6f756e7420657863656564732062616c616e604482015261636560f01b6064820152608401610722565b6001600160a01b0383166000908152603360205260408120838303905560358054849290612c9b908490613c70565b90915550506040518281526000906001600160a01b038516907fddf252ad1be2c89b69c2b068fc378daa952ba7f163c4a11628f55a4df523b3ef90602001612559565b505050565b600033610892818585612e1b565b60008054610100900460ff1615612d30578160ff166001148015612d145750303b155b6125f45760405162461bcd60e51b8152600401610722906141c9565b60005460ff808416911610612d575760405162461bcd60e51b8152600401610722906141c9565b506000805460ff191660ff92909216919091179055600190565b600054610100900460ff16612ddc5760405162461bcd60e51b815260206004820152602b60248201527f496e697469616c697a61626c653a20636f6e7472616374206973206e6f74206960448201526a6e697469616c697a696e6760a81b6064820152608401610722565b8151612def9060369060208501906130c5565b508051612cde9060379060208401906130c5565b6000612e116012600a613a27565b6108989083613a36565b6001600160a01b038316612e7f5760405162461bcd60e51b815260206004820152602560248201527f45524332303a207472616e736665722066726f6d20746865207a65726f206164604482015264647265737360d81b6064820152608401610722565b6001600160a01b038216612ee15760405162461bcd60e51b815260206004820152602360248201527f45524332303a207472616e7366657220746f20746865207a65726f206164647260448201526265737360e81b6064820152608401610722565b6001600160a01b03831660009081526033602052604090205481811015612f595760405162461bcd60e51b815260206004820152602660248201527f45524332303a207472616e7366657220616d6f756e7420657863656564732062604482015265616c616e636560d01b6064820152608401610722565b6001600160a01b03808516600090815260336020526040808220858503905591851681529081208054849290612f90908490614012565b92505081905550826001600160a01b0316846001600160a01b03167fddf252ad1be2c89b69c2b068fc378daa952ba7f163c4a11628f55a4df523b3ef84604051612fdc91815260200190565b60405180910390a3611e1c565b6040518061018001604052806060815260200160006001600160401b0316815260200160006001600160401b031681526020016000815260200160006001600160401b0316815260200160001515815260200160001515815260200160608152602001606081526020016060815260200160608152602001606081525090565b60405180610140016040528060608152602001606081526020016060815260200160608152602001606081526020016060815260200160608152602001606081526020016060815260200160006001600160a01b031681525090565b8280546130d190614217565b90600052602060002090601f0160209004810192826130f35760008555613139565b82601f1061310c57805160ff1916838001178555613139565b82800160010185558215613139579182015b8281111561313957825182559160200191906001019061311e565b50613145929150613149565b5090565b5b80821115613145576000815560010161314a565b60005b83811015613179578181015183820152602001613161565b83811115611e1c5750506000910152565b600081518084526131a281602086016020860161315e565b601f01601f19169290920160200192915050565b6020815260006105e1602083018461318a565b60008083601f8401126131db57600080fd5b5081356001600160401b038111156131f257600080fd5b60208301915083602082850101111561320a57600080fd5b9250929050565b6001600160a01b038116811461322657600080fd5b50565b60008060008060008060006080888a03121561324457600080fd5b87356001600160401b038082111561325b57600080fd5b6132678b838c016131c9565b909950975060208a0135915061327c82613211565b9095506040890135908082111561329257600080fd5b61329e8b838c016131c9565b909650945060608a01359150808211156132b757600080fd5b506132c48a828b016131c9565b989b979a50959850939692959293505050565b600080604083850312156132ea57600080fd5b82356132f581613211565b946020939093013593505050565b60008060008060006080868803121561331b57600080fd5b853561332681613211565b9450602086013561333681613211565b93506040860135925060608601356001600160401b0381111561335857600080fd5b613364888289016131c9565b969995985093965092949392505050565b6000610180825181855261338b8286018261318a565b91505060208301516133a860208601826001600160401b03169052565b5060408301516133c360408601826001600160401b03169052565b506060830151606085015260808301516133e860808601826001600160401b03169052565b5060a08301516133fc60a086018215159052565b5060c083015161341060c086018215159052565b5060e083015184820360e0860152613428828261318a565b9150506101008084015185830382870152613443838261318a565b92505050610120808401518583038287015261345f838261318a565b92505050610140808401518583038287015261347b838261318a565b925050506101608084015185830382870152613497838261318a565b9695505050505050565b60408152600083516101408060408501526134c061018085018361318a565b91506020860151603f19808685030160608701526134de848361318a565b935060408801519150808685030160808701526134fb848361318a565b935060608801519150808685030160a0870152613518848361318a565b935060808801519150808685030160c0870152613535848361318a565b935060a08801519150808685030160e0870152613552848361318a565b935060c08801519150610100818786030181880152613571858461318a565b945060e08901519250610120828887030181890152613590868561318a565b9550818a015193508288870301858901526135ab868561318a565b9550808a01519450505050506135cd6101608501826001600160a01b03169052565b5082810360208401526117518185613375565b6000806000606084860312156135f557600080fd5b833561360081613211565b9250602084013561361081613211565b929592945050506040919091013590565b60008060008060008060008060a0898b03121561363d57600080fd5b88356001600160401b038082111561365457600080fd5b6136608c838d016131c9565b909a50985060208b0135915061367582613211565b90965060408a0135908082111561368b57600080fd5b6136978c838d016131c9565b909750955060608b01359150808211156136b057600080fd5b506136bd8b828c016131c9565b999c989b50969995989497949560800135949350505050565b6020815260006105e16020830184613375565b6000602082840312156136fb57600080fd5b5035919050565b604081526000613715604083018561318a565b8281036020840152611751818561318a565b60006020828403121561373957600080fd5b81356105e181613211565b6000806040838503121561375757600080fd5b50508035926020909101359150565b634e487b7160e01b600052604160045260246000fd5b60405161018081016001600160401b038111828210171561379f5761379f613766565b60405290565b60405161014081016001600160401b038111828210171561379f5761379f613766565b604051601f8201601f191681016001600160401b03811182821017156137f0576137f0613766565b604052919050565b60006001600160401b0382111561381157613811613766565b50601f01601f191660200190565b600082601f83011261383057600080fd5b813561384361383e826137f8565b6137c8565b81815284602083860101111561385857600080fd5b816020850160208301376000918101602001919091529392505050565b6000806000806080858703121561388b57600080fd5b84356001600160401b03808211156138a257600080fd5b6138ae8883890161381f565b955060208701359150808211156138c457600080fd5b506138d18782880161381f565b9350506040850135915060608501356138e981613211565b939692955090935050565b6000806040838503121561390757600080fd5b823561391281613211565b9150602083013561392281613211565b809150509250929050565b634e487b7160e01b600052601160045260246000fd5b600181815b8085111561397e5781600019048211156139645761396461392d565b8085161561397157918102915b93841c9390800290613948565b509250929050565b60008261399557506001610898565b816139a257506000610898565b81600181146139b857600281146139c2576139de565b6001915050610898565b60ff8411156139d3576139d361392d565b50506001821b610898565b5060208310610133831016604e8410600b8410161715613a01575081810a610898565b613a0b8383613943565b8060001904821115613a1f57613a1f61392d565b029392505050565b60006105e160ff841683613986565b6000816000190483118215151615613a5057613a5061392d565b500290565b75546f7563616e2050726f746f636f6c3a2054434f322d60501b815260008351613a8681601685016020880161315e565b602d60f81b6016918401918201528351613aa781601784016020880161315e565b01601701949350505050565b80516125fc81613211565b600060208284031215613ad057600080fd5b81516105e181613211565b805180151581146125fc57600080fd5b600060208284031215613afd57600080fd5b6105e182613adb565b6020808252600b908201526a2830bab9b2b2102a21a79960a91b604082015260600190565b634e487b7160e01b600052603260045260246000fd5b81835281816020850137506000828201602090810191909152601f909101601f19169091010190565b600081518084526020808501945080840160005b83811015613b9a57815187529582019590820190600101613b7e565b509495945050505050565b600060018060a01b03808c16835260c06020840152613bc860c084018b8d613b41565b818a1660408501528381036060850152613be381898b613b41565b9150508281036080840152613bf9818688613b41565b905082810360a0840152613c0d8185613b6a565b9c9b505050505050505050505050565b600060208284031215613c2f57600080fd5b5051919050565b634e487b7160e01b600052602160045260246000fd5b60008060408385031215613c5f57600080fd5b505080516020909101519092909150565b600082821015613c8257613c8261392d565b500390565b600082601f830112613c9857600080fd5b8151613ca661383e826137f8565b818152846020838601011115613cbb57600080fd5b6115c782602083016020870161315e565b80516001600160401b03811681146125fc57600080fd5b600060208284031215613cf557600080fd5b81516001600160401b0380821115613d0c57600080fd5b908301906101808286031215613d2157600080fd5b613d2961377c565b825182811115613d3857600080fd5b613d4487828601613c87565b825250613d5360208401613ccc565b6020820152613d6460408401613ccc565b604082015260608301516060820152613d7f60808401613ccc565b6080820152613d9060a08401613adb565b60a0820152613da160c08401613adb565b60c082015260e083015182811115613db857600080fd5b613dc487828601613c87565b60e0830152506101008084015183811115613dde57600080fd5b613dea88828701613c87565b8284015250506101208084015183811115613e0457600080fd5b613e1088828701613c87565b8284015250506101408084015183811115613e2a57600080fd5b613e3688828701613c87565b8284015250506101608084015183811115613e5057600080fd5b613e5c88828701613c87565b918301919091525095945050505050565b600060208284031215613e7f57600080fd5b81516001600160401b0380821115613e9657600080fd5b908301906101408286031215613eab57600080fd5b613eb36137a5565b825182811115613ec257600080fd5b613ece87828601613c87565b825250602083015182811115613ee357600080fd5b613eef87828601613c87565b602083015250604083015182811115613f0757600080fd5b613f1387828601613c87565b604083015250606083015182811115613f2b57600080fd5b613f3787828601613c87565b606083015250608083015182811115613f4f57600080fd5b613f5b87828601613c87565b60808301525060a083015182811115613f7357600080fd5b613f7f87828601613c87565b60a08301525060c083015182811115613f9757600080fd5b613fa387828601613c87565b60c08301525060e083015182811115613fbb57600080fd5b613fc787828601613c87565b60e0830152506101008084015183811115613fe157600080fd5b613fed88828701613c87565b8284015250506101209150614003828401613ab3565b91810191909152949350505050565b600082198211156140255761402561392d565b500190565b6454434f322d60d81b81526000835161404a81600585016020880161315e565b602d60f81b600591840191820152835161406b81600684016020880161315e565b01600601949350505050565b60008060006060848603121561408c57600080fd5b83519250602084015191506040840151600781106140a957600080fd5b809150509250925092565b60018060a01b038416815260606020820152600083516101408060608501526140e16101a0850183613b6a565b9150602086015160808501526040860151605f19808685030160a0870152614109848361318a565b93506060880151915061412760c08701836001600160a01b03169052565b60808801519150808685030160e0870152614142848361318a565b935060a08801519150610100818786030181880152614161858461318a565b945060c08901519250610120828887030181890152614180868561318a565b955060e08a0151935082888703018589015261419c868561318a565b9550818a0151610160890152808a0151610180890152505050505082810360408401526134978185613b6a565b6020808252602e908201527f496e697469616c697a61626c653a20636f6e747261637420697320616c72656160408201526d191e481a5b9a5d1a585b1a5e995960921b606082015260800190565b600181811c9082168061422b57607f821691505b60208210810361424b57634e487b7160e01b600052602260045260246000fd5b5091905056fea2646970667358221220f41af5ec533dcaa6d0537b961394b691e3105756d95247862e5156ff7bd63ade64736f6c634300080e0033496e697469616c697a61626c653a20636f6e747261637420697320616c726561","linkReferences":{}},"methodIdentifiers":{"DETOKENIZER_ROLE()":"5c6f3a90","RETIREMENT_ROLE()":"83f2fc3e","TOKENIZER_ROLE()":"0605a334","VERSION()":"ffa1ad74","VERSION_RELEASE_CANDIDATE()":"6ca0b0d7","allowance(address,address)":"dd62ed3e","approve(address,uint256)":"095ea7b3","balanceOf(address)":"70a08231","bridgeBurn(address,uint256)":"74f4f547","bridgeMint(address,uint256)":"8c2a993e","burnFrom(address,uint256)":"79cc6790","contractRegistry()":"abf410e5","count(uint256)":"3b3546c8","decimals()":"313ce567","decreaseAllowance(address,uint256)":"a457c2d7","defractionalize(uint256)":"7903c7d0","getAttributes()":"152583de","getDepositCap()":"01a598da","getGlobalProjectVintageIdentifiers()":"64c5a403","getRemaining()":"d6a022b8","getVintageData()":"3633f35f","increaseAllowance(address,uint256)":"39509351","initialize(string,string,uint256,address)":"bd3a13f6","mintCertificateLegacy(string,address,string,string)":"077c6f2b","minterToId(address)":"e9d5c8d5","name()":"06fdde03","onERC721Received(address,address,uint256,bytes)":"150b7a02","projectVintageTokenId()":"e819426c","retire(uint256)":"3790cf57","retireAndMintCertificate(string,address,string,string,uint256)":"2ef29290","retireFrom(address,uint256)":"6b24ffd6","standardRegistry()":"3c31175e","standardRegistryDecimals()":"65ec1809","storeCount(uint256,uint256)":"7c873cde","symbol()":"95d89b41","totalSupply()":"18160ddd","transfer(address,uint256)":"a9059cbb","transferFrom(address,address,uint256)":"23b872dd"},"id":23}